{
  "_format": "hh-sol-artifact-1",
  "contractName": "ComponentPassport",
  "sourceName": "contracts/ComponentPassport.sol",
  "abi": [
    {
      "inputs": [],
      "stateMutability": "nonpayable",
      "type": "constructor"
    },
    {
      "anonymous": false,
      "inputs": [
        {
          "indexed": true,
          "internalType": "bytes32",
          "name": "chipHash",
          "type": "bytes32"
        },
        {
          "indexed": false,
          "internalType": "string",
          "name": "partNumber",
          "type": "string"
        },
        {
          "indexed": true,
          "internalType": "address",
          "name": "manufacturer",
          "type": "address"
        }
      ],
      "name": "ComponentRegistered",
      "type": "event"
    },
    {
      "anonymous": false,
      "inputs": [
        {
          "indexed": true,
          "internalType": "bytes32",
          "name": "chipHash",
          "type": "bytes32"
        },
        {
          "indexed": false,
          "internalType": "enum ComponentPassport.Status",
          "name": "status",
          "type": "uint8"
        },
        {
          "indexed": false,
          "internalType": "string",
          "name": "pcbId",
          "type": "string"
        }
      ],
      "name": "ComponentStatusUpdated",
      "type": "event"
    },
    {
      "anonymous": false,
      "inputs": [
        {
          "indexed": true,
          "internalType": "bytes32",
          "name": "chipHash",
          "type": "bytes32"
        },
        {
          "indexed": true,
          "internalType": "address",
          "name": "from",
          "type": "address"
        },
        {
          "indexed": true,
          "internalType": "address",
          "name": "to",
          "type": "address"
        }
      ],
      "name": "OwnershipTransferred",
      "type": "event"
    },
    {
      "anonymous": false,
      "inputs": [
        {
          "indexed": true,
          "internalType": "address",
          "name": "account",
          "type": "address"
        },
        {
          "indexed": false,
          "internalType": "enum ComponentPassport.Role",
          "name": "role",
          "type": "uint8"
        }
      ],
      "name": "RoleAssigned",
      "type": "event"
    },
    {
      "inputs": [],
      "name": "admin",
      "outputs": [
        {
          "internalType": "address",
          "name": "",
          "type": "address"
        }
      ],
      "stateMutability": "view",
      "type": "function"
    },
    {
      "inputs": [
        {
          "internalType": "address",
          "name": "_account",
          "type": "address"
        },
        {
          "internalType": "enum ComponentPassport.Role",
          "name": "_role",
          "type": "uint8"
        }
      ],
      "name": "assignRole",
      "outputs": [],
      "stateMutability": "nonpayable",
      "type": "function"
    },
    {
      "inputs": [
        {
          "internalType": "bytes32",
          "name": "",
          "type": "bytes32"
        }
      ],
      "name": "isRegistered",
      "outputs": [
        {
          "internalType": "bool",
          "name": "",
          "type": "bool"
        }
      ],
      "stateMutability": "view",
      "type": "function"
    },
    {
      "inputs": [
        {
          "internalType": "bytes32",
          "name": "_chipHash",
          "type": "bytes32"
        },
        {
          "internalType": "string",
          "name": "_pcbId",
          "type": "string"
        }
      ],
      "name": "mountToPcb",
      "outputs": [],
      "stateMutability": "nonpayable",
      "type": "function"
    },
    {
      "inputs": [
        {
          "internalType": "bytes32",
          "name": "_chipHash",
          "type": "bytes32"
        }
      ],
      "name": "recallComponent",
      "outputs": [],
      "stateMutability": "nonpayable",
      "type": "function"
    },
    {
      "inputs": [
        {
          "internalType": "bytes32",
          "name": "_chipHash",
          "type": "bytes32"
        },
        {
          "internalType": "string",
          "name": "_partNumber",
          "type": "string"
        },
        {
          "internalType": "string",
          "name": "_batchNo",
          "type": "string"
        },
        {
          "internalType": "string",
          "name": "_productionFacility",
          "type": "string"
        },
        {
          "internalType": "string",
          "name": "_qualityTest",
          "type": "string"
        }
      ],
      "name": "registerComponent",
      "outputs": [],
      "stateMutability": "nonpayable",
      "type": "function"
    },
    {
      "inputs": [
        {
          "internalType": "address",
          "name": "",
          "type": "address"
        }
      ],
      "name": "roles",
      "outputs": [
        {
          "internalType": "enum ComponentPassport.Role",
          "name": "",
          "type": "uint8"
        }
      ],
      "stateMutability": "view",
      "type": "function"
    },
    {
      "inputs": [
        {
          "internalType": "bytes32",
          "name": "_chipHash",
          "type": "bytes32"
        },
        {
          "internalType": "address",
          "name": "_to",
          "type": "address"
        }
      ],
      "name": "transferOwnership",
      "outputs": [],
      "stateMutability": "nonpayable",
      "type": "function"
    },
    {
      "inputs": [
        {
          "internalType": "bytes32",
          "name": "_chipHash",
          "type": "bytes32"
        }
      ],
      "name": "verifyComponent",
      "outputs": [
        {
          "components": [
            {
              "internalType": "string",
              "name": "partNumber",
              "type": "string"
            },
            {
              "internalType": "string",
              "name": "batchNo",
              "type": "string"
            },
            {
              "internalType": "string",
              "name": "productionFacility",
              "type": "string"
            },
            {
              "internalType": "uint256",
              "name": "productionDate",
              "type": "uint256"
            },
            {
              "internalType": "string",
              "name": "qualityTest",
              "type": "string"
            },
            {
              "internalType": "address",
              "name": "currentOwner",
              "type": "address"
            },
            {
              "internalType": "enum ComponentPassport.Status",
              "name": "status",
              "type": "uint8"
            },
            {
              "internalType": "string",
              "name": "associatedPcbId",
              "type": "string"
            }
          ],
          "internalType": "struct ComponentPassport.Component",
          "name": "",
          "type": "tuple"
        }
      ],
      "stateMutability": "view",
      "type": "function"
    }
  ],
  "bytecode": "0x608060405234801561001057600080fd5b5033600360006101000a81548173ffffffffffffffffffffffffffffffffffffffff021916908373ffffffffffffffffffffffffffffffffffffffff16021790555060016000803373ffffffffffffffffffffffffffffffffffffffff1673ffffffffffffffffffffffffffffffffffffffff16815260200190815260200160002060006101000a81548160ff021916908360038111156100b4576100b36100be565b5b02179055506100ed565b7f4e487b7100000000000000000000000000000000000000000000000000000000600052602160045260246000fd5b612220806100fc6000396000f3fe608060405234801561001057600080fd5b50600436106100935760003560e01c806389859d351161006657806389859d3514610130578063993746421461014c578063ef4d60761461017c578063ef5d6bbb14610198578063f851a440146101b457610093565b806327258b22146100985780633729e383146100c8578063630a195b146100f85780636af7ac7914610114575b600080fd5b6100b260048036038101906100ad91906112ea565b6101d2565b6040516100bf9190611332565b60405180910390f35b6100e260048036038101906100dd91906112ea565b6101f2565b6040516100ef919061157a565b60405180910390f35b610112600480360381019061010d91906115ed565b6105f5565b005b61012e600480360381019061012991906112ea565b61073d565b005b61014a60048036038101906101459190611762565b6108cc565b005b6101666004803603810190610161919061184d565b610c00565b60405161017391906118c2565b60405180910390f35b610196600480360381019061019191906118dd565b610c20565b005b6101b260048036038101906101ad9190611939565b610e7a565b005b6101bc61120d565b6040516101c99190611988565b60405180910390f35b60026020528060005260406000206000915054906101000a900460ff1681565b6101fa611233565b6002600083815260200190815260200160002060009054906101000a900460ff1661025a576040517f08c379a000000000000000000000000000000000000000000000000000000000815260040161025190611a26565b60405180910390fd5b600160008381526020019081526020016000206040518061010001604052908160008201805461028990611a75565b80601f01602080910402602001604051908101604052809291908181526020018280546102b590611a75565b80156103025780601f106102d757610100808354040283529160200191610302565b820191906000526020600020905b8154815290600101906020018083116102e557829003601f168201915b5050505050815260200160018201805461031b90611a75565b80601f016020809104026020016040519081016040528092919081815260200182805461034790611a75565b80156103945780601f1061036957610100808354040283529160200191610394565b820191906000526020600020905b81548152906001019060200180831161037757829003601f168201915b505050505081526020016002820180546103ad90611a75565b80601f01602080910402602001604051908101604052809291908181526020018280546103d990611a75565b80156104265780601f106103fb57610100808354040283529160200191610426565b820191906000526020600020905b81548152906001019060200180831161040957829003601f168201915b505050505081526020016003820154815260200160048201805461044990611a75565b80601f016020809104026020016040519081016040528092919081815260200182805461047590611a75565b80156104c25780601f10610497576101008083540402835291602001916104c2565b820191906000526020600020905b8154815290600101906020018083116104a557829003601f168201915b505050505081526020016005820160009054906101000a900473ffffffffffffffffffffffffffffffffffffffff1673ffffffffffffffffffffffffffffffffffffffff1673ffffffffffffffffffffffffffffffffffffffff1681526020016005820160149054906101000a900460ff16600481111561054657610545611437565b5b600481111561055857610557611437565b5b815260200160068201805461056c90611a75565b80601f016020809104026020016040519081016040528092919081815260200182805461059890611a75565b80156105e55780601f106105ba576101008083540402835291602001916105e5565b820191906000526020600020905b8154815290600101906020018083116105c857829003601f168201915b5050505050815250509050919050565b600360009054906101000a900473ffffffffffffffffffffffffffffffffffffffff1673ffffffffffffffffffffffffffffffffffffffff163373ffffffffffffffffffffffffffffffffffffffff1614610685576040517f08c379a000000000000000000000000000000000000000000000000000000000815260040161067c90611b18565b60405180910390fd5b806000808473ffffffffffffffffffffffffffffffffffffffff1673ffffffffffffffffffffffffffffffffffffffff16815260200190815260200160002060006101000a81548160ff021916908360038111156106e6576106e5611437565b5b02179055508173ffffffffffffffffffffffffffffffffffffffff167f4ac36fa53f167ceb85964be512e01de2a3b8bdb9862f917da079deeeff689b388260405161073191906118c2565b60405180910390a25050565b600180600381111561075257610751611437565b5b6000803373ffffffffffffffffffffffffffffffffffffffff1673ffffffffffffffffffffffffffffffffffffffff16815260200190815260200160002060009054906101000a900460ff1660038111156107b0576107af611437565b5b146107f0576040517f08c379a00000000000000000000000000000000000000000000000000000000081526004016107e790611baa565b60405180910390fd5b6002600083815260200190815260200160002060009054906101000a900460ff16610850576040517f08c379a000000000000000000000000000000000000000000000000000000000815260040161084790611c16565b60405180910390fd5b60046001600084815260200190815260200160002060050160146101000a81548160ff0219169083600481111561088a57610889611437565b5b0217905550817f0bae6f04585c4019c98b1af9e878378f7e161cfd3076e288e4b2bd0bd00ee0ab60046040516108c09190611c91565b60405180910390a25050565b60018060038111156108e1576108e0611437565b5b6000803373ffffffffffffffffffffffffffffffffffffffff1673ffffffffffffffffffffffffffffffffffffffff16815260200190815260200160002060009054906101000a900460ff16600381111561093f5761093e611437565b5b1461097f576040517f08c379a000000000000000000000000000000000000000000000000000000000815260040161097690611baa565b60405180910390fd5b6002600087815260200190815260200160002060009054906101000a900460ff16156109e0576040517f08c379a00000000000000000000000000000000000000000000000000000000081526004016109d790611d31565b60405180910390fd5b6040518061010001604052808681526020018581526020018481526020014281526020018381526020013373ffffffffffffffffffffffffffffffffffffffff16815260200160006004811115610a3a57610a39611437565b5b81526020016040518060400160405280600481526020017f4e6f6e6500000000000000000000000000000000000000000000000000000000815250815250600160008881526020019081526020016000206000820151816000019081610aa09190611efd565b506020820151816001019081610ab69190611efd565b506040820151816002019081610acc9190611efd565b50606082015181600301556080820151816004019081610aec9190611efd565b5060a08201518160050160006101000a81548173ffffffffffffffffffffffffffffffffffffffff021916908373ffffffffffffffffffffffffffffffffffffffff16021790555060c08201518160050160146101000a81548160ff02191690836004811115610b5f57610b5e611437565b5b021790555060e0820151816006019081610b799190611efd565b5090505060016002600088815260200190815260200160002060006101000a81548160ff0219169083151502179055503373ffffffffffffffffffffffffffffffffffffffff16867f5235d9646288cfb0968ac4f623d1ee8fed0c44d7f6c346079b6510af9d52590587604051610bf09190612008565b60405180910390a3505050505050565b60006020528060005260406000206000915054906101000a900460ff1681565b6003806003811115610c3557610c34611437565b5b6000803373ffffffffffffffffffffffffffffffffffffffff1673ffffffffffffffffffffffffffffffffffffffff16815260200190815260200160002060009054906101000a900460ff166003811115610c9357610c92611437565b5b14610cd3576040517f08c379a0000000000000000000000000000000000000000000000000000000008152600401610cca90611baa565b60405180910390fd5b6002600084815260200190815260200160002060009054906101000a900460ff16610d33576040517f08c379a0000000000000000000000000000000000000000000000000000000008152600401610d2a90611c16565b60405180910390fd5b3373ffffffffffffffffffffffffffffffffffffffff166001600085815260200190815260200160002060050160009054906101000a900473ffffffffffffffffffffffffffffffffffffffff1673ffffffffffffffffffffffffffffffffffffffff1614610dd7576040517f08c379a0000000000000000000000000000000000000000000000000000000008152600401610dce9061209c565b60405180910390fd5b60026001600085815260200190815260200160002060050160146101000a81548160ff02191690836004811115610e1157610e10611437565b5b021790555081600160008581526020019081526020016000206006019081610e399190611efd565b50827f0bae6f04585c4019c98b1af9e878378f7e161cfd3076e288e4b2bd0bd00ee0ab600284604051610e6d9291906120bc565b60405180910390a2505050565b6002600083815260200190815260200160002060009054906101000a900460ff16610eda576040517f08c379a0000000000000000000000000000000000000000000000000000000008152600401610ed190611c16565b60405180910390fd5b3373ffffffffffffffffffffffffffffffffffffffff166001600084815260200190815260200160002060050160009054906101000a900473ffffffffffffffffffffffffffffffffffffffff1673ffffffffffffffffffffffffffffffffffffffff1614610f7e576040517f08c379a0000000000000000000000000000000000000000000000000000000008152600401610f759061215e565b60405180910390fd5b600073ffffffffffffffffffffffffffffffffffffffff168173ffffffffffffffffffffffffffffffffffffffff1603610fed576040517f08c379a0000000000000000000000000000000000000000000000000000000008152600401610fe4906121ca565b60405180910390fd5b60006001600084815260200190815260200160002060050160009054906101000a900473ffffffffffffffffffffffffffffffffffffffff169050816001600085815260200190815260200160002060050160006101000a81548173ffffffffffffffffffffffffffffffffffffffff021916908373ffffffffffffffffffffffffffffffffffffffff1602179055506003808111156110905761108f611437565b5b6000808473ffffffffffffffffffffffffffffffffffffffff1673ffffffffffffffffffffffffffffffffffffffff16815260200190815260200160002060009054906101000a900460ff1660038111156110ee576110ed611437565b5b148061116957506002600381111561110957611108611437565b5b6000808473ffffffffffffffffffffffffffffffffffffffff1673ffffffffffffffffffffffffffffffffffffffff16815260200190815260200160002060009054906101000a900460ff16600381111561116757611166611437565b5b145b156111ad57600180600085815260200190815260200160002060050160146101000a81548160ff021916908360048111156111a7576111a6611437565b5b02179055505b8173ffffffffffffffffffffffffffffffffffffffff168173ffffffffffffffffffffffffffffffffffffffff16847f0b659dccc8eb950324170e8d9598af5ee04ee070883eb28651a96788721fbf8360405160405180910390a4505050565b600360009054906101000a900473ffffffffffffffffffffffffffffffffffffffff1681565b6040518061010001604052806060815260200160608152602001606081526020016000815260200160608152602001600073ffffffffffffffffffffffffffffffffffffffff1681526020016000600481111561129357611292611437565b5b8152602001606081525090565b6000604051905090565b600080fd5b600080fd5b6000819050919050565b6112c7816112b4565b81146112d257600080fd5b50565b6000813590506112e4816112be565b92915050565b600060208284031215611300576112ff6112aa565b5b600061130e848285016112d5565b91505092915050565b60008115159050919050565b61132c81611317565b82525050565b60006020820190506113476000830184611323565b92915050565b600081519050919050565b600082825260208201905092915050565b60005b8381101561138757808201518184015260208101905061136c565b60008484015250505050565b6000601f19601f8301169050919050565b60006113af8261134d565b6113b98185611358565b93506113c9818560208601611369565b6113d281611393565b840191505092915050565b6000819050919050565b6113f0816113dd565b82525050565b600073ffffffffffffffffffffffffffffffffffffffff82169050919050565b6000611421826113f6565b9050919050565b61143181611416565b82525050565b7f4e487b7100000000000000000000000000000000000000000000000000000000600052602160045260246000fd5b6005811061147757611476611437565b5b50565b600081905061148882611466565b919050565b60006114988261147a565b9050919050565b6114a88161148d565b82525050565b60006101008301600083015184820360008601526114cc82826113a4565b915050602083015184820360208601526114e682826113a4565b9150506040830151848203604086015261150082826113a4565b915050606083015161151560608601826113e7565b506080830151848203608086015261152d82826113a4565b91505060a083015161154260a0860182611428565b5060c083015161155560c086018261149f565b5060e083015184820360e086015261156d82826113a4565b9150508091505092915050565b6000602082019050818103600083015261159481846114ae565b905092915050565b6115a581611416565b81146115b057600080fd5b50565b6000813590506115c28161159c565b92915050565b600481106115d557600080fd5b50565b6000813590506115e7816115c8565b92915050565b60008060408385031215611604576116036112aa565b5b6000611612858286016115b3565b9250506020611623858286016115d8565b9150509250929050565b600080fd5b600080fd5b7f4e487b7100000000000000000000000000000000000000000000000000000000600052604160045260246000fd5b61166f82611393565b810181811067ffffffffffffffff8211171561168e5761168d611637565b5b80604052505050565b60006116a16112a0565b90506116ad8282611666565b919050565b600067ffffffffffffffff8211156116cd576116cc611637565b5b6116d682611393565b9050602081019050919050565b82818337600083830152505050565b6000611705611700846116b2565b611697565b90508281526020810184848401111561172157611720611632565b5b61172c8482856116e3565b509392505050565b600082601f8301126117495761174861162d565b5b81356117598482602086016116f2565b91505092915050565b600080600080600060a0868803121561177e5761177d6112aa565b5b600061178c888289016112d5565b955050602086013567ffffffffffffffff8111156117ad576117ac6112af565b5b6117b988828901611734565b945050604086013567ffffffffffffffff8111156117da576117d96112af565b5b6117e688828901611734565b935050606086013567ffffffffffffffff811115611807576118066112af565b5b61181388828901611734565b925050608086013567ffffffffffffffff811115611834576118336112af565b5b61184088828901611734565b9150509295509295909350565b600060208284031215611863576118626112aa565b5b6000611871848285016115b3565b91505092915050565b6004811061188b5761188a611437565b5b50565b600081905061189c8261187a565b919050565b60006118ac8261188e565b9050919050565b6118bc816118a1565b82525050565b60006020820190506118d760008301846118b3565b92915050565b600080604083850312156118f4576118f36112aa565b5b6000611902858286016112d5565b925050602083013567ffffffffffffffff811115611923576119226112af565b5b61192f85828601611734565b9150509250929050565b600080604083850312156119505761194f6112aa565b5b600061195e858286016112d5565b925050602061196f858286016115b3565b9150509250929050565b61198281611416565b82525050565b600060208201905061199d6000830184611979565b92915050565b600082825260208201905092915050565b7f486174613a20476563657273697a205152206b6f64207665796120736168746560008201527f206b6f6d706f6e656e7421000000000000000000000000000000000000000000602082015250565b6000611a10602b836119a3565b9150611a1b826119b4565b604082019050919050565b60006020820190508181036000830152611a3f81611a03565b9050919050565b7f4e487b7100000000000000000000000000000000000000000000000000000000600052602260045260246000fd5b60006002820490506001821680611a8d57607f821691505b602082108103611aa057611a9f611a46565b5b50919050565b7f5965746b69204861746173693a205361646563652041646d696e20627520697360008201527f6c656d69207961706162696c69722e0000000000000000000000000000000000602082015250565b6000611b02602f836119a3565b9150611b0d82611aa6565b604082019050919050565b60006020820190508181036000830152611b3181611af5565b9050919050565b7f5965746b69204861746173693a2042752069736c656d206963696e20726f6c7560008201527f6e757a20796574657273697a2e00000000000000000000000000000000000000602082015250565b6000611b94602d836119a3565b9150611b9f82611b38565b604082019050919050565b60006020820190508181036000830152611bc381611b87565b9050919050565b7f486174613a204b6f6d706f6e656e742062756c756e616d6164692e0000000000600082015250565b6000611c00601b836119a3565b9150611c0b82611bca565b602082019050919050565b60006020820190508181036000830152611c2f81611bf3565b9050919050565b611c3f8161148d565b82525050565b7f4e6f6e6500000000000000000000000000000000000000000000000000000000600082015250565b6000611c7b6004836119a3565b9150611c8682611c45565b602082019050919050565b6000604082019050611ca66000830184611c36565b8181036020830152611cb781611c6e565b905092915050565b7f486174613a204275206b6f6d706f6e656e74207a6174656e2073697374656d6560008201527f206b617969746c69210000000000000000000000000000000000000000000000602082015250565b6000611d1b6029836119a3565b9150611d2682611cbf565b604082019050919050565b60006020820190508181036000830152611d4a81611d0e565b9050919050565b60008190508160005260206000209050919050565b60006020601f8301049050919050565b600082821b905092915050565b600060088302611db37fffffffffffffffffffffffffffffffffffffffffffffffffffffffffffffffff82611d76565b611dbd8683611d76565b95508019841693508086168417925050509392505050565b6000819050919050565b6000611dfa611df5611df0846113dd565b611dd5565b6113dd565b9050919050565b6000819050919050565b611e1483611ddf565b611e28611e2082611e01565b848454611d83565b825550505050565b600090565b611e3d611e30565b611e48818484611e0b565b505050565b5b81811015611e6c57611e61600082611e35565b600181019050611e4e565b5050565b601f821115611eb157611e8281611d51565b611e8b84611d66565b81016020851015611e9a578190505b611eae611ea685611d66565b830182611e4d565b50505b505050565b600082821c905092915050565b6000611ed460001984600802611eb6565b1980831691505092915050565b6000611eed8383611ec3565b9150826002028217905092915050565b611f068261134d565b67ffffffffffffffff811115611f1f57611f1e611637565b5b611f298254611a75565b611f34828285611e70565b600060209050601f831160018114611f675760008415611f55578287015190505b611f5f8582611ee1565b865550611fc7565b601f198416611f7586611d51565b60005b82811015611f9d57848901518255600182019150602085019450602081019050611f78565b86831015611fba5784890151611fb6601f891682611ec3565b8355505b6001600288020188555050505b505050505050565b6000611fda8261134d565b611fe481856119a3565b9350611ff4818560208601611369565b611ffd81611393565b840191505092915050565b600060208201905081810360008301526120228184611fcf565b905092915050565b7f486174613a20496c67696c692070617263612073697a696e20656e76616e746560008201527f72696e697a646520646567696c2e000000000000000000000000000000000000602082015250565b6000612086602e836119a3565b91506120918261202a565b604082019050919050565b600060208201905081810360008301526120b581612079565b9050919050565b60006040820190506120d16000830185611c36565b81810360208301526120e38184611fcf565b90509392505050565b7f486174613a204275206b6f6d706f6e656e74696e207361686962692073697a2060008201527f646567696c73696e697a2e000000000000000000000000000000000000000000602082015250565b6000612148602b836119a3565b9150612153826120ec565b604082019050919050565b600060208201905081810360008301526121778161213b565b9050919050565b7f486174613a20476563657273697a2063757a64616e206164726573692e000000600082015250565b60006121b4601d836119a3565b91506121bf8261217e565b602082019050919050565b600060208201905081810360008301526121e3816121a7565b905091905056fea264697066735822122075864f4623a78f26b88db630dba717b8e39ee4afd180ae9bb34a9436958811cc64736f6c63430008140033",
  "linkReferences": {},
  "deployedLinkReferences": {}
}